{
    "contractName": "Airline",
    "abi": [
        {
            "inputs": [],
            "stateMutability": "nonpayable",
            "type": "constructor"
        },
        {
            "anonymous": false,
            "inputs": [
                {
                    "indexed": true,
                    "internalType": "address",
                    "name": "customer",
                    "type": "address"
                },
                {
                    "indexed": false,
                    "internalType": "uint256",
                    "name": "price",
                    "type": "uint256"
                }
            ],
            "name": "FlightPurchased",
            "type": "event"
        },
        {
            "inputs": [
                {
                    "internalType": "uint256",
                    "name": "flightIndex",
                    "type": "uint256"
                }
            ],
            "name": "buyFlight",
            "outputs": [],
            "stateMutability": "payable",
            "type": "function"
        },
        {
            "inputs": [
                {
                    "internalType": "address",
                    "name": "",
                    "type": "address"
                },
                {
                    "internalType": "uint256",
                    "name": "",
                    "type": "uint256"
                }
            ],
            "name": "customerFlights",
            "outputs": [
                {
                    "internalType": "uint256",
                    "name": "",
                    "type": "uint256"
                }
            ],
            "stateMutability": "view",
            "type": "function"
        },
        {
            "inputs": [
                {
                    "internalType": "address",
                    "name": "",
                    "type": "address"
                }
            ],
            "name": "customerTotalFlights",
            "outputs": [
                {
                    "internalType": "uint256",
                    "name": "",
                    "type": "uint256"
                }
            ],
            "stateMutability": "view",
            "type": "function"
        },
        {
            "inputs": [
                {
                    "internalType": "address",
                    "name": "",
                    "type": "address"
                }
            ],
            "name": "customers",
            "outputs": [
                {
                    "internalType": "uint256",
                    "name": "loyaltyPoints",
                    "type": "uint256"
                },
                {
                    "internalType": "uint256",
                    "name": "totalFlights",
                    "type": "uint256"
                }
            ],
            "stateMutability": "view",
            "type": "function"
        },
        {
            "inputs": [
                {
                    "internalType": "uint256",
                    "name": "",
                    "type": "uint256"
                }
            ],
            "name": "flights",
            "outputs": [
                {
                    "internalType": "string",
                    "name": "name",
                    "type": "string"
                },
                {
                    "internalType": "uint256",
                    "name": "price",
                    "type": "uint256"
                }
            ],
            "stateMutability": "view",
            "type": "function"
        },
        {
            "inputs": [],
            "name": "getAirlineBalance",
            "outputs": [
                {
                    "internalType": "uint256",
                    "name": "",
                    "type": "uint256"
                }
            ],
            "stateMutability": "view",
            "type": "function"
        },
        {
            "inputs": [],
            "name": "getRefundableEther",
            "outputs": [
                {
                    "internalType": "uint256",
                    "name": "",
                    "type": "uint256"
                }
            ],
            "stateMutability": "view",
            "type": "function"
        },
        {
            "inputs": [],
            "name": "owner",
            "outputs": [
                {
                    "internalType": "address",
                    "name": "",
                    "type": "address"
                }
            ],
            "stateMutability": "view",
            "type": "function"
        },
        {
            "inputs": [],
            "name": "redeemLoyaltyPoints",
            "outputs": [],
            "stateMutability": "nonpayable",
            "type": "function"
        },
        {
            "inputs": [],
            "name": "totalFlights",
            "outputs": [
                {
                    "internalType": "uint256",
                    "name": "",
                    "type": "uint256"
                }
            ],
            "stateMutability": "view",
            "type": "function"
        }
    ],
    "bytecode": "60806040526706f05b59d3b2000060015534801561001c57600080fd5b50600080546001600160a01b0319163317815560408051608081018252600591810191825264546f6b796f60d81b606082015290815268056bc75e2d6310000060208083019190915260028054600181018255938190528251805193949091026000805160206109fc833981519152019261009a928492019061019e565b50602091820151600191820155604080516080810182526008918101918252675368616e6768616960c01b6060820152908152680821ab0d4414980000818401526002805492830181556000819052815180519294939091026000805160206109fc83398151915201926101139284929091019061019e565b50602091820151600191820155604080516080810182526008918101918252674e657720596f726b60c01b6060820152908152680ad78ebc5ac6200000818401526002805492830181556000819052815180519294939091026000805160206109fc833981519152019261018c9284929091019061019e565b50602082015181600101555050610272565b8280546101aa90610237565b90600052602060002090601f0160209004810192826101cc5760008555610212565b82601f106101e557805160ff1916838001178555610212565b82800160010185558215610212579182015b828111156102125782518255916020019190600101906101f7565b5061021e929150610222565b5090565b5b8082111561021e5760008155600101610223565b600181811c9082168061024b57607f821691505b6020821081141561026c57634e487b7160e01b600052602260045260246000fd5b50919050565b61077b806102816000396000f3fe6080604052600436106100915760003560e01c80634bf02e7a116100595780634bf02e7a1461016357806381959427146101785780638da5cb5b14610198578063f269365a146101d0578063f997114f146101fd57600080fd5b80630ca97e481461009657806315ccf70f146100ab5780632411ff73146100e257806329cd30b414610105578063336989ae1461011a575b600080fd5b6100a96100a4366004610616565b610212565b005b3480156100b757600080fd5b506100cb6100c6366004610616565b6103ec565b6040516100d992919061062f565b60405180910390f35b3480156100ee57600080fd5b506100f76104a8565b6040519081526020016100d9565b34801561011157600080fd5b506100f76104ca565b34801561012657600080fd5b5061014e6101353660046105ca565b6003602052600090815260409020805460019091015482565b604080519283526020830191909152016100d9565b34801561016f57600080fd5b506002546100f7565b34801561018457600080fd5b506100f76101933660046105ec565b610524565b3480156101a457600080fd5b506000546101b8906001600160a01b031681565b6040516001600160a01b0390911681526020016100d9565b3480156101dc57600080fd5b506100f76101eb3660046105ca565b60056020526000908152604090205481565b34801561020957600080fd5b506100a9610555565b6000600282815481106102275761022761072f565b9060005260206000209060020201604051806040016040529081600082018054610250906106c3565b80601f016020809104026020016040519081016040528092919081815260200182805461027c906106c3565b80156102c95780601f1061029e576101008083540402835291602001916102c9565b820191906000526020600020905b8154815290600101906020018083116102ac57829003601f168201915b5050505050815260200160018201548152505090508060200151341461032c5760405162461bcd60e51b815260206004820152601360248201527224b739bab33334b1b4b2b73a10333ab732399760691b60448201526064015b60405180910390fd5b3360009081526003602052604081208054909160059183919061035090849061068c565b90915550506001818101805460009061036a90849061068c565b9091555050336000818152600460209081526040808320805460018101825590845282842001879055928252600590529081208054916103a9836106fe565b909155505060208083015160405190815233917f8644b0eb56c7a568d35c9f35feeacfcdb42c3cfe3deb99e35d6ac27df853a08c910160405180910390a2505050565b600281815481106103fc57600080fd5b906000526020600020906002020160009150905080600001805461041f906106c3565b80601f016020809104026020016040519081016040528092919081815260200182805461044b906106c3565b80156104985780601f1061046d57610100808354040283529160200191610498565b820191906000526020600020905b81548152906001019060200180831161047b57829003601f168201915b5050505050908060010154905082565b336000908152600360205260408120546001546104c591906106a4565b905090565b600080546001600160a01b0316331461051e5760405162461bcd60e51b81526020600482015260166024820152752cb7ba9030b932903737ba103a34329037bbb732b91760511b6044820152606401610323565b50303190565b6004602052816000526040600020818154811061054057600080fd5b90600052602060002001600091509150505481565b336000908152600360205260408120805460015491929161057691906106a4565b604051909150339082156108fc029083906000818181858888f193505050501580156105a6573d6000803e3d6000fd5b505060009055565b80356001600160a01b03811681146105c557600080fd5b919050565b6000602082840312156105dc57600080fd5b6105e5826105ae565b9392505050565b600080604083850312156105ff57600080fd5b610608836105ae565b946020939093013593505050565b60006020828403121561062857600080fd5b5035919050565b604081526000835180604084015260005b8181101561065d5760208187018101516060868401015201610640565b8181111561066f576000606083860101525b50602083019390935250601f91909101601f191601606001919050565b6000821982111561069f5761069f610719565b500190565b60008160001904831182151516156106be576106be610719565b500290565b600181811c908216806106d757607f821691505b602082108114156106f857634e487b7160e01b600052602260045260246000fd5b50919050565b600060001982141561071257610712610719565b5060010190565b634e487b7160e01b600052601160045260246000fd5b634e487b7160e01b600052603260045260246000fdfea2646970667358221220af5d3cb8d6627df04e31170bc30144754bdba2b03eb6fe66e6483c0ae06fcc4264736f6c63430008060033405787fa12a823e0f2b7631cc41b3ba8828b3321ca811111fa75cd3aa3bb5ace",
    "sourcePath": "/Users/abracu/Projects/solidity/ethereum-airline/contracts/Airline.sol",
    "compiler": {
        "name": "solc",
        "version": "0.8.6+commit.11564f7e"
    },
    "functionHashes": {
        "buyFlight(uint256)": "0ca97e48",
        "customerFlights(address,uint256)": "81959427",
        "customerTotalFlights(address)": "f269365a",
        "customers(address)": "336989ae",
        "flights(uint256)": "15ccf70f",
        "getAirlineBalance()": "29cd30b4",
        "getRefundableEther()": "2411ff73",
        "owner()": "8da5cb5b",
        "redeemLoyaltyPoints()": "f997114f",
        "totalFlights()": "4bf02e7a"
    },
    "gasEstimates": {
        "creation": {
            "codeDepositCost": "383000",
            "executionCost": "infinite",
            "totalCost": "infinite"
        },
        "external": {
            "buyFlight(uint256)": "infinite",
            "customerFlights(address,uint256)": "4766",
            "customerTotalFlights(address)": "2585",
            "customers(address)": "4747",
            "flights(uint256)": "infinite",
            "getAirlineBalance()": "5018",
            "getRefundableEther()": "4620",
            "owner()": "2381",
            "redeemLoyaltyPoints()": "infinite",
            "totalFlights()": "2292"
        }
    }
}